:10000000FF0C05004000060007002600070AFD0C53
:100010002A00AA02AA02AA02AA02EA00EA00EA0048
:100020000A02FE0F4307150A180AF10C26001B0AE4
:10003000010C26001B0A6A00A00CEA01EA01030772
:10004000370AEA010306370A0A02E00F4307370AB4
:10005000300CAA00AA000307370AAA00AA00AA00C7
:100060000306370A0A02F00F4307370A3A0AF20C6E
:1000700026003D0A020C26003D0A0305A00C2A00BA
:100080002A0303052A0303042A0303042A030A029A
:100090003A0F43075A0A0305A00C2A006A03030516
:1000A0006A0303046A0303046A030A020C0F43078A
:1000B0005A0A5D0AF30C2600600A030C2600600A47
:1000C000070C0200FF0C2A006100EA004307650AE2
:1000D0000102030F43076D0A700AF40C2600730A2D
:1000E000040C2600730A6A00050C2A016A02730CCC
:1000F0006A01F00CAA01AA030A02280F43078D0A1D
:10010000EA05CA05AA048A056A044A052A050A05F9
:100110000A02D70F43078D0A900AF50C2600930AAE
:10012000050C2600930A6A009E099E099E09A10AF1
:10013000050CEA010008030CAA00000898099B09B5
:1001400000080A02060F4307A60AA90AF60C2600B1
:10015000AC0A060C2600AC0A010C2A001A0C24007A
:100160000A022000AA023A0C24000A022000AA0275
:100170005A0C24000A022000AA027A0C24000A0267
:100180002000AA021A0C24000002010F4307DB0A18
:100190003A0C24000002020F4307DB0A5A0C240029
:1001A0000002030F4307DB0A7A0C24000002040F4D
:1001B0004307DB0ADE0AF70C2600E10A070C2600DB
:1001C000E10A070C020061000502550F4306ED0A23
:1001D0000102020F4306F60AE40A0502AA0F4306CB
:1001E000F90A0102040F4306F60AED0AF80C26008C
:0A01F000FC0A080C2600FC0AFC0AB9
:020FFE00000AE7
:00000001FF
